{
  "transactions": [
    {
      "hash": "0x9e24f4c4613703cc5c36fa7d060e22909e54e196b414afa438623b4f2f4a28c1",
      "transactionType": "CALL",
      "contractName": null,
      "contractAddress": "0xfe4e57c1cadeca00bf1a766424fd6444ccab8fe8",
      "function": "applyChainUpdates((uint64,bool,bytes,bytes,(bool,uint128,uint128),(bool,uint128,uint128))[])",
      "arguments": [
        "[(6898391096552792247, true, 0x0000000000000000000000001d3c81f85ac58f920120b0ecf50f8bbe2fdfe3c6, 0x0000000000000000000000006016cf6e340de100a6ef1b42d55e46c1a42b3861, (false, 0, 0), (false, 0, 0))]"
      ],
      "transaction": {
        "from": "0xf9a39f3823a11d2bc4999582234b0a8197f51706",
        "to": "0xfe4e57c1cadeca00bf1a766424fd6444ccab8fe8",
        "gas": "0x525cc",
        "value": "0x0",
        "input": "0xdb6327dc0000000000000000000000000000000000000000000000000000000000000020000000000000000000000000000000000000000000000000000000000000000100000000000000000000000000000000000000000000000000000000000000200000000000000000000000000000000000000000000000005fbc02272fbf20b700000000000000000000000000000000000000000000000000000000000000010000000000000000000000000000000000000000000000000000000000000140000000000000000000000000000000000000000000000000000000000000018000000000000000000000000000000000000000000000000000000000000000000000000000000000000000000000000000000000000000000000000000000000000000000000000000000000000000000000000000000000000000000000000000000000000000000000000000000000000000000000000000000000000000000000000000000000000000000000000000000000000000000000000000000000000000000000000000000000000000000000000000000000000000000000000000000000000000000000000000000000000000000000000000000000000000200000000000000000000000001d3c81f85ac58f920120b0ecf50f8bbe2fdfe3c600000000000000000000000000000000000000000000000000000000000000200000000000000000000000006016cf6e340de100a6ef1b42d55e46c1a42b3861",
        "nonce": "0x72",
        "chainId": "0xaa36a7"
      },
      "additionalContracts": [],
      "isFixedGasLimit": false
    }
  ],
  "receipts": [
    {
      "status": "0x1",
      "cumulativeGasUsed": "0x33fbe7",
      "logs": [
        {
          "address": "0xfe4e57c1cadeca00bf1a766424fd6444ccab8fe8",
          "topics": [
            "0x8d340f17e19058004c20453540862a9c62778504476f6756755cb33bcd6c38c2"
          ],
          "data": "0x0000000000000000000000000000000000000000000000005fbc02272fbf20b7000000000000000000000000000000000000000000000000000000000000010000000000000000000000000000000000000000000000000000000000000000000000000000000000000000000000000000000000000000000000000000000000000000000000000000000000000000000000000000000000000000000000000000000000000000000000000000000000000000000000000000000000000000000000000000000000000000000000000000000000000000000000000000000000000000000000000000000000000000000000000000000000000000000000000000000000000000000000000000000000000000000000000000000000000000200000000000000000000000006016cf6e340de100a6ef1b42d55e46c1a42b3861",
          "blockHash": "0x7b43d07f4ad32eb97aa91d41c850884d414d2e28ccf37cb69cd7d152b37610e4",
          "blockNumber": "0x9aac87",
          "blockTimestamp": "0x69791eb0",
          "transactionHash": "0x9e24f4c4613703cc5c36fa7d060e22909e54e196b414afa438623b4f2f4a28c1",
          "transactionIndex": "0x23",
          "logIndex": "0x23",
          "removed": false
        }
      ],
      "logsBloom": "0x00000000000000400000000000000000000000000000000000000000000000000000000000000000000000000000000000000000000000000004000000000000000000000000000000000000000000000000000000000000000000000000000000000000000000000000000000000000000004000000000000000000000000000000000000000002000000000000000000000020000000000000000000000000000000000000000000000000000000000000000000000000000000000000000000000000000000000000000000000000000000000000000000000000000000000000000000000000000000000000000000000000000000000100000000000000",
      "type": "0x2",
      "transactionHash": "0x9e24f4c4613703cc5c36fa7d060e22909e54e196b414afa438623b4f2f4a28c1",
      "transactionIndex": "0x23",
      "blockHash": "0x7b43d07f4ad32eb97aa91d41c850884d414d2e28ccf37cb69cd7d152b37610e4",
      "blockNumber": "0x9aac87",
      "gasUsed": "0x3ba10",
      "effectiveGasPrice": "0x43480954",
      "from": "0xf9a39f3823a11d2bc4999582234b0a8197f51706",
      "to": "0xfe4e57c1cadeca00bf1a766424fd6444ccab8fe8",
      "contractAddress": null
    }
  ],
  "libraries": [],
  "pending": [],
  "returns": {},
  "timestamp": 1769545391186,
  "chain": 11155111,
  "commit": null
}