{
  "transactions": [
    {
      "hash": "0xc9405635a1885b46aa73193e4cf70d98d3d7b931f5c384dc3bd044996ac93381",
      "transactionType": "CALL",
      "contractName": null,
      "contractAddress": "0x4b5cf83e51a14eace758112dab9c359d9d469b77",
      "function": "applyChainUpdates((uint64,bool,bytes,bytes,(bool,uint128,uint128),(bool,uint128,uint128))[])",
      "arguments": [
        "[(6898391096552792247, true, 0x00000000000000000000000001e4d438e82bf79d1dafd40f8ea9a4b3eb4c997b, 0x0000000000000000000000003a6d4974cabd802a00d9657f1842f00469ad9478, (false, 0, 0), (false, 0, 0))]"
      ],
      "transaction": {
        "from": "0xf9a39f3823a11d2bc4999582234b0a8197f51706",
        "to": "0x4b5cf83e51a14eace758112dab9c359d9d469b77",
        "gas": "0x525cc",
        "value": "0x0",
        "input": "0xdb6327dc0000000000000000000000000000000000000000000000000000000000000020000000000000000000000000000000000000000000000000000000000000000100000000000000000000000000000000000000000000000000000000000000200000000000000000000000000000000000000000000000005fbc02272fbf20b7000000000000000000000000000000000000000000000000000000000000000100000000000000000000000000000000000000000000000000000000000001400000000000000000000000000000000000000000000000000000000000000180000000000000000000000000000000000000000000000000000000000000000000000000000000000000000000000000000000000000000000000000000000000000000000000000000000000000000000000000000000000000000000000000000000000000000000000000000000000000000000000000000000000000000000000000000000000000000000000000000000000000000000000000000000000000000000000000000000000000000000000000000000000000000000000000000000000000000000000000000000000000000000000000000000000000002000000000000000000000000001e4d438e82bf79d1dafd40f8ea9a4b3eb4c997b00000000000000000000000000000000000000000000000000000000000000200000000000000000000000003a6d4974cabd802a00d9657f1842f00469ad9478",
        "nonce": "0x5c",
        "chainId": "0xaa36a7"
      },
      "additionalContracts": [],
      "isFixedGasLimit": false
    }
  ],
  "receipts": [
    {
      "status": "0x1",
      "cumulativeGasUsed": "0xa9b8b7",
      "logs": [
        {
          "address": "0x4b5cf83e51a14eace758112dab9c359d9d469b77",
          "topics": [
            "0x8d340f17e19058004c20453540862a9c62778504476f6756755cb33bcd6c38c2"
          ],
          "data": "0x0000000000000000000000000000000000000000000000005fbc02272fbf20b7000000000000000000000000000000000000000000000000000000000000010000000000000000000000000000000000000000000000000000000000000000000000000000000000000000000000000000000000000000000000000000000000000000000000000000000000000000000000000000000000000000000000000000000000000000000000000000000000000000000000000000000000000000000000000000000000000000000000000000000000000000000000000000000000000000000000000000000000000000000000000000000000000000000000000000000000000000000000000000000000000000000000000000000000000000200000000000000000000000003a6d4974cabd802a00d9657f1842f00469ad9478",
          "blockHash": "0x68ecbda381b0ceef0b50fdc88813a0c791e084f19922730588f31f2d82b74bb3",
          "blockNumber": "0x9aa7c8",
          "blockTimestamp": "0x6978e3c4",
          "transactionHash": "0xc9405635a1885b46aa73193e4cf70d98d3d7b931f5c384dc3bd044996ac93381",
          "transactionIndex": "0x2e",
          "logIndex": "0x95",
          "removed": false
        }
      ],
      "logsBloom": "0x00000000000000400000000000000200000000000000000000000000000000000000000000004000000000000000000000000000000000000004000000000000000000000000000000000000000000000000000000000000000000000000000000000000000000000000000000000000000000000000000000000000000000000000000000000000000000000000000000000000000000000000000000000000000000000000000000000000000000000000000000000000000000000000000000000000000000000000000000000000000000000000000000000000000000000000000000000000000000000000000000000000000000000100000000000000",
      "type": "0x2",
      "transactionHash": "0xc9405635a1885b46aa73193e4cf70d98d3d7b931f5c384dc3bd044996ac93381",
      "transactionIndex": "0x2e",
      "blockHash": "0x68ecbda381b0ceef0b50fdc88813a0c791e084f19922730588f31f2d82b74bb3",
      "blockNumber": "0x9aa7c8",
      "gasUsed": "0x3ba10",
      "effectiveGasPrice": "0x405fa5ae",
      "from": "0xf9a39f3823a11d2bc4999582234b0a8197f51706",
      "to": "0x4b5cf83e51a14eace758112dab9c359d9d469b77",
      "contractAddress": null
    }
  ],
  "libraries": [],
  "pending": [],
  "returns": {},
  "timestamp": 1769530308505,
  "chain": 11155111,
  "commit": null
}