{
  "transactions": [
    {
      "hash": "0xed98e61f3ceb0588c79d63ea52b207ab6325ab1a5982293b88a609904b6da1d7",
      "transactionType": "CALL",
      "contractName": null,
      "contractAddress": "0x90c082c151060ad9e26268692c2e76537135f90f",
      "function": "applyChainUpdates((uint64,bool,bytes,bytes,(bool,uint128,uint128),(bool,uint128,uint128))[])",
      "arguments": [
        "[(6898391096552792247, true, 0x000000000000000000000000864626a8df0e89186fa69f384edd6a14f5955a53, 0x0000000000000000000000000b264d6b7a33a13e79f165937534f32c6f194ff5, (false, 0, 0), (false, 0, 0))]"
      ],
      "transaction": {
        "from": "0xf9a39f3823a11d2bc4999582234b0a8197f51706",
        "to": "0x90c082c151060ad9e26268692c2e76537135f90f",
        "gas": "0x525dc",
        "value": "0x0",
        "input": "0xdb6327dc0000000000000000000000000000000000000000000000000000000000000020000000000000000000000000000000000000000000000000000000000000000100000000000000000000000000000000000000000000000000000000000000200000000000000000000000000000000000000000000000005fbc02272fbf20b70000000000000000000000000000000000000000000000000000000000000001000000000000000000000000000000000000000000000000000000000000014000000000000000000000000000000000000000000000000000000000000001800000000000000000000000000000000000000000000000000000000000000000000000000000000000000000000000000000000000000000000000000000000000000000000000000000000000000000000000000000000000000000000000000000000000000000000000000000000000000000000000000000000000000000000000000000000000000000000000000000000000000000000000000000000000000000000000000000000000000000000000000000000000000000000000000000000000000000000000000000000000000000000000000000000000000020000000000000000000000000864626a8df0e89186fa69f384edd6a14f5955a5300000000000000000000000000000000000000000000000000000000000000200000000000000000000000000b264d6b7a33a13e79f165937534f32c6f194ff5",
        "nonce": "0x56",
        "chainId": "0xaa36a7"
      },
      "additionalContracts": [],
      "isFixedGasLimit": false
    }
  ],
  "receipts": [
    {
      "status": "0x1",
      "cumulativeGasUsed": "0xd060e1",
      "logs": [
        {
          "address": "0x90c082c151060ad9e26268692c2e76537135f90f",
          "topics": [
            "0x8d340f17e19058004c20453540862a9c62778504476f6756755cb33bcd6c38c2"
          ],
          "data": "0x0000000000000000000000000000000000000000000000005fbc02272fbf20b7000000000000000000000000000000000000000000000000000000000000010000000000000000000000000000000000000000000000000000000000000000000000000000000000000000000000000000000000000000000000000000000000000000000000000000000000000000000000000000000000000000000000000000000000000000000000000000000000000000000000000000000000000000000000000000000000000000000000000000000000000000000000000000000000000000000000000000000000000000000000000000000000000000000000000000000000000000000000000000000000000000000000000000000000000000200000000000000000000000000b264d6b7a33a13e79f165937534f32c6f194ff5",
          "blockHash": "0x412de75d9d14657b7f5a96238a6f029861e88366739b1eb68be0128a8a010e94",
          "blockNumber": "0x9aa716",
          "blockTimestamp": "0x6978db30",
          "transactionHash": "0xed98e61f3ceb0588c79d63ea52b207ab6325ab1a5982293b88a609904b6da1d7",
          "transactionIndex": "0x31",
          "logIndex": "0x4a",
          "removed": false
        }
      ],
      "logsBloom": "0x00000000000000400000000000000000000000000000000000000000000000000000000000010000000000000000000000000000000000000004000000000000040000000000000000000000000000000000000000000000000000000000000000000000000000000000000000000000000000000000000000000000000000000000000000000000000000000000000000000000000000000000000000000000000000000000000000000000000000000000000000000000000100000000000000000000000000000000000000000000000000000000000000000000000000000000000000000000000000000000000000000000000000000100000000000000",
      "type": "0x2",
      "transactionHash": "0xed98e61f3ceb0588c79d63ea52b207ab6325ab1a5982293b88a609904b6da1d7",
      "transactionIndex": "0x31",
      "blockHash": "0x412de75d9d14657b7f5a96238a6f029861e88366739b1eb68be0128a8a010e94",
      "blockNumber": "0x9aa716",
      "gasUsed": "0x3ba1c",
      "effectiveGasPrice": "0x3c5c5732",
      "from": "0xf9a39f3823a11d2bc4999582234b0a8197f51706",
      "to": "0x90c082c151060ad9e26268692c2e76537135f90f",
      "contractAddress": null
    }
  ],
  "libraries": [],
  "pending": [],
  "returns": {},
  "timestamp": 1769528113475,
  "chain": 11155111,
  "commit": null
}