{
  "transactions": [
    {
      "hash": "0xa591e385d9ddd5f000c1e323b8dca07211bc58c3344bee5df4edda207714abc6",
      "transactionType": "CALL",
      "contractName": null,
      "contractAddress": "0x0bf3de8c5d3e8a2b34d2beeb17abfcebaf363a59",
      "function": "ccipSend(uint64,(bytes,bytes,(address,uint256)[],address,bytes))",
      "arguments": [
        "6898391096552792247",
        "(0x000000000000000000000000f9a39f3823a11d2bc4999582234b0a8197f51706, 0x, [(0xa56a7D2D835161b959CB31d5796FDB70FcD3503D, 100000)], 0x779877A7B0D9E8603169DdbD7836e478b4624789, 0x97a657c90000000000000000000000000000000000000000000000000000000000000000)"
      ],
      "transaction": {
        "from": "0xf9a39f3823a11d2bc4999582234b0a8197f51706",
        "to": "0x0bf3de8c5d3e8a2b34d2beeb17abfcebaf363a59",
        "gas": "0x5f090",
        "value": "0x0",
        "input": "0x96f4e9f90000000000000000000000000000000000000000000000005fbc02272fbf20b7000000000000000000000000000000000000000000000000000000000000004000000000000000000000000000000000000000000000000000000000000000a000000000000000000000000000000000000000000000000000000000000000e00000000000000000000000000000000000000000000000000000000000000100000000000000000000000000779877a7b0d9e8603169ddbd7836e478b462478900000000000000000000000000000000000000000000000000000000000001600000000000000000000000000000000000000000000000000000000000000020000000000000000000000000f9a39f3823a11d2bc4999582234b0a8197f5170600000000000000000000000000000000000000000000000000000000000000000000000000000000000000000000000000000000000000000000000000000001000000000000000000000000a56a7d2d835161b959cb31d5796fdb70fcd3503d00000000000000000000000000000000000000000000000000000000000186a0000000000000000000000000000000000000000000000000000000000000002497a657c9000000000000000000000000000000000000000000000000000000000000000000000000000000000000000000000000000000000000000000000000",
        "nonce": "0x7d",
        "chainId": "0xaa36a7"
      },
      "additionalContracts": [],
      "isFixedGasLimit": false
    }
  ],
  "receipts": [
    {
      "status": "0x1",
      "cumulativeGasUsed": "0x8275bf",
      "logs": [
        {
          "address": "0x779877a7b0d9e8603169ddbd7836e478b4624789",
          "topics": [
            "0xddf252ad1be2c89b69c2b068fc378daa952ba7f163c4a11628f55a4df523b3ef",
            "0x000000000000000000000000f9a39f3823a11d2bc4999582234b0a8197f51706",
            "0x000000000000000000000000a2865e4f36760f5fa5c8f958336120f2df0d974b"
          ],
          "data": "0x000000000000000000000000000000000000000000000000004d70c0e22b9e59",
          "blockHash": "0xef05949725e3f1f2bfb44e50d9fe289a60f68bf2cbb974cb88a0dee6304cdd79",
          "blockNumber": "0x9abb49",
          "blockTimestamp": "0x6979d508",
          "transactionHash": "0xa591e385d9ddd5f000c1e323b8dca07211bc58c3344bee5df4edda207714abc6",
          "transactionIndex": "0x2f",
          "logIndex": "0x5e",
          "removed": false
        },
        {
          "address": "0x779877a7b0d9e8603169ddbd7836e478b4624789",
          "topics": [
            "0x8c5be1e5ebec7d5bd14f71427d1e84f3dd0314c0f7b2291e5b200ac8c7c3b925",
            "0x000000000000000000000000f9a39f3823a11d2bc4999582234b0a8197f51706",
            "0x0000000000000000000000000bf3de8c5d3e8a2b34d2beeb17abfcebaf363a59"
          ],
          "data": "0x0000000000000000000000000000000000000000000000000000000000000000",
          "blockHash": "0xef05949725e3f1f2bfb44e50d9fe289a60f68bf2cbb974cb88a0dee6304cdd79",
          "blockNumber": "0x9abb49",
          "blockTimestamp": "0x6979d508",
          "transactionHash": "0xa591e385d9ddd5f000c1e323b8dca07211bc58c3344bee5df4edda207714abc6",
          "transactionIndex": "0x2f",
          "logIndex": "0x5f",
          "removed": false
        },
        {
          "address": "0xa56a7d2d835161b959cb31d5796fdb70fcd3503d",
          "topics": [
            "0xddf252ad1be2c89b69c2b068fc378daa952ba7f163c4a11628f55a4df523b3ef",
            "0x0000000000000000000000000000000000000000000000000000000000000000",
            "0x000000000000000000000000f9a39f3823a11d2bc4999582234b0a8197f51706"
          ],
          "data": "0x00000000000000000000000000000000000000000000000000000000000000e9",
          "blockHash": "0xef05949725e3f1f2bfb44e50d9fe289a60f68bf2cbb974cb88a0dee6304cdd79",
          "blockNumber": "0x9abb49",
          "blockTimestamp": "0x6979d508",
          "transactionHash": "0xa591e385d9ddd5f000c1e323b8dca07211bc58c3344bee5df4edda207714abc6",
          "transactionIndex": "0x2f",
          "logIndex": "0x60",
          "removed": false
        },
        {
          "address": "0xa56a7d2d835161b959cb31d5796fdb70fcd3503d",
          "topics": [
            "0xddf252ad1be2c89b69c2b068fc378daa952ba7f163c4a11628f55a4df523b3ef",
            "0x0000000000000000000000000000000000000000000000000000000000000000",
            "0x000000000000000000000000fe4e57c1cadeca00bf1a766424fd6444ccab8fe8"
          ],
          "data": "0x0000000000000000000000000000000000000000000000000000000000000000",
          "blockHash": "0xef05949725e3f1f2bfb44e50d9fe289a60f68bf2cbb974cb88a0dee6304cdd79",
          "blockNumber": "0x9abb49",
          "blockTimestamp": "0x6979d508",
          "transactionHash": "0xa591e385d9ddd5f000c1e323b8dca07211bc58c3344bee5df4edda207714abc6",
          "transactionIndex": "0x2f",
          "logIndex": "0x61",
          "removed": false
        },
        {
          "address": "0xa56a7d2d835161b959cb31d5796fdb70fcd3503d",
          "topics": [
            "0xddf252ad1be2c89b69c2b068fc378daa952ba7f163c4a11628f55a4df523b3ef",
            "0x000000000000000000000000f9a39f3823a11d2bc4999582234b0a8197f51706",
            "0x000000000000000000000000fe4e57c1cadeca00bf1a766424fd6444ccab8fe8"
          ],
          "data": "0x00000000000000000000000000000000000000000000000000000000000186a0",
          "blockHash": "0xef05949725e3f1f2bfb44e50d9fe289a60f68bf2cbb974cb88a0dee6304cdd79",
          "blockNumber": "0x9abb49",
          "blockTimestamp": "0x6979d508",
          "transactionHash": "0xa591e385d9ddd5f000c1e323b8dca07211bc58c3344bee5df4edda207714abc6",
          "transactionIndex": "0x2f",
          "logIndex": "0x62",
          "removed": false
        },
        {
          "address": "0xa56a7d2d835161b959cb31d5796fdb70fcd3503d",
          "topics": [
            "0xddf252ad1be2c89b69c2b068fc378daa952ba7f163c4a11628f55a4df523b3ef",
            "0x0000000000000000000000000000000000000000000000000000000000000000",
            "0x000000000000000000000000fe4e57c1cadeca00bf1a766424fd6444ccab8fe8"
          ],
          "data": "0x0000000000000000000000000000000000000000000000000000000000000000",
          "blockHash": "0xef05949725e3f1f2bfb44e50d9fe289a60f68bf2cbb974cb88a0dee6304cdd79",
          "blockNumber": "0x9abb49",
          "blockTimestamp": "0x6979d508",
          "transactionHash": "0xa591e385d9ddd5f000c1e323b8dca07211bc58c3344bee5df4edda207714abc6",
          "transactionIndex": "0x2f",
          "logIndex": "0x63",
          "removed": false
        },
        {
          "address": "0xa56a7d2d835161b959cb31d5796fdb70fcd3503d",
          "topics": [
            "0xddf252ad1be2c89b69c2b068fc378daa952ba7f163c4a11628f55a4df523b3ef",
            "0x000000000000000000000000fe4e57c1cadeca00bf1a766424fd6444ccab8fe8",
            "0x0000000000000000000000000000000000000000000000000000000000000000"
          ],
          "data": "0x00000000000000000000000000000000000000000000000000000000000186a0",
          "blockHash": "0xef05949725e3f1f2bfb44e50d9fe289a60f68bf2cbb974cb88a0dee6304cdd79",
          "blockNumber": "0x9abb49",
          "blockTimestamp": "0x6979d508",
          "transactionHash": "0xa591e385d9ddd5f000c1e323b8dca07211bc58c3344bee5df4edda207714abc6",
          "transactionIndex": "0x2f",
          "logIndex": "0x64",
          "removed": false
        },
        {
          "address": "0xa2865e4f36760f5fa5c8f958336120f2df0d974b",
          "topics": [
            "0xd0c3c799bf9e2639de44391e7f524d229b2b55f5b1ea94b2bf7da42f7243dddd"
          ],
          "data": "0x0000000000000000000000000000000000000000000000000000000000000020000000000000000000000000000000000000000000000000de41ba4fc9d91ad9000000000000000000000000f9a39f3823a11d2bc4999582234b0a8197f51706000000000000000000000000f9a39f3823a11d2bc4999582234b0a8197f51706000000000000000000000000000000000000000000000000000000000000034a000000000000000000000000000000000000000000000000000000000000000000000000000000000000000000000000000000000000000000000000000000000000000000000000000000000000000000000000000000000000000000000001000000000000000000000000779877a7b0d9e8603169ddbd7836e478b4624789000000000000000000000000000000000000000000000000004d70c0e22b9e5900000000000000000000000000000000000000000000000000000000000001a000000000000000000000000000000000000000000000000000000000000001c00000000000000000000000000000000000000000000000000000000000000220eb75394205a6d5f31449e149c9aeea43c8dd59e23f4553b048d2c44843bba50800000000000000000000000000000000000000000000000000000000000000000000000000000000000000000000000000000000000000000000000000000001000000000000000000000000a56a7d2d835161b959cb31d5796fdb70fcd3503d00000000000000000000000000000000000000000000000000000000000186a00000000000000000000000000000000000000000000000000000000000000001000000000000000000000000000000000000000000000000000000000000002000000000000000000000000000000000000000000000000000000000000001600000000000000000000000000000000000000000000000000000000000000020000000000000000000000000000000000000000000000000000000000000008000000000000000000000000000000000000000000000000000000000000000c000000000000000000000000000000000000000000000000000000000000001000000000000000000000000000000000000000000000000000000000000015f900000000000000000000000000000000000000000000000000000000000000020000000000000000000000000fe4e57c1cadeca00bf1a766424fd6444ccab8fe800000000000000000000000000000000000000000000000000000000000000200000000000000000000000006016cf6e340de100a6ef1b42d55e46c1a42b386100000000000000000000000000000000000000000000000000000000000000200000000000000000000000000000000000000000000000000000000ba43b7400",
          "blockHash": "0xef05949725e3f1f2bfb44e50d9fe289a60f68bf2cbb974cb88a0dee6304cdd79",
          "blockNumber": "0x9abb49",
          "blockTimestamp": "0x6979d508",
          "transactionHash": "0xa591e385d9ddd5f000c1e323b8dca07211bc58c3344bee5df4edda207714abc6",
          "transactionIndex": "0x2f",
          "logIndex": "0x65",
          "removed": false
        }
      ],
      "logsBloom": "0x00000004000040000000000000800000000000000000000000000000000000000000000000000000002000000000000000000000000000000000000010200000000000000000000000008028000000000000000000000000000000000000000010000000020100000000000000000800000000000000100000000010000000000000000000000000000000000000800000060000000000000000000000000100020000000000080400000000000000000000000000000000000100010000000000000002000000000000000000000000000000000100000100000000000020000010800000000001000000000000000004000800000000000000000000000000",
      "type": "0x2",
      "transactionHash": "0xa591e385d9ddd5f000c1e323b8dca07211bc58c3344bee5df4edda207714abc6",
      "transactionIndex": "0x2f",
      "blockHash": "0xef05949725e3f1f2bfb44e50d9fe289a60f68bf2cbb974cb88a0dee6304cdd79",
      "blockNumber": "0x9abb49",
      "gasUsed": "0x44cdd",
      "effectiveGasPrice": "0x3cc42ac6",
      "from": "0xf9a39f3823a11d2bc4999582234b0a8197f51706",
      "to": "0x0bf3de8c5d3e8a2b34d2beeb17abfcebaf363a59",
      "contractAddress": null
    }
  ],
  "libraries": [],
  "pending": [],
  "returns": {},
  "timestamp": 1769592073367,
  "chain": 11155111,
  "commit": null
}